{
  "_format": "hh-sol-artifact-1",
  "contractName": "EthAvaxAssessment",
  "sourceName": "contracts/EthAvaxAssessment.sol",
  "abi": [
    {
      "inputs": [
        {
          "internalType": "uint256",
          "name": "initSmiles",
          "type": "uint256"
        }
      ],
      "stateMutability": "nonpayable",
      "type": "constructor"
    },
    {
      "inputs": [],
      "name": "getTotalSmiles",
      "outputs": [
        {
          "internalType": "uint256",
          "name": "",
          "type": "uint256"
        }
      ],
      "stateMutability": "view",
      "type": "function"
    },
    {
      "inputs": [],
      "name": "recieveSmile",
      "outputs": [],
      "stateMutability": "nonpayable",
      "type": "function"
    },
    {
      "inputs": [],
      "name": "sendSmile",
      "outputs": [],
      "stateMutability": "nonpayable",
      "type": "function"
    },
    {
      "inputs": [],
      "name": "totalSmiles",
      "outputs": [
        {
          "internalType": "uint256",
          "name": "",
          "type": "uint256"
        }
      ],
      "stateMutability": "view",
      "type": "function"
    }
  ],
  "bytecode": "0x608060405234801561001057600080fd5b5060405161085c38038061085c83398181016040528101906100329190610182565b806000819055506100816040518060400160405280601681526020017f6c657427732073656520736f6d6520736d696c6573210000000000000000000081525061008760201b6101a61760201c565b50610261565b6101238160405160240161009b919061023f565b6040516020818303038152906040527f41304fac000000000000000000000000000000000000000000000000000000007bffffffffffffffffffffffffffffffffffffffffffffffffffffffff19166020820180517bffffffffffffffffffffffffffffffffffffffffffffffffffffffff838183161783525050505061012660201b60201c565b50565b60006a636f6e736f6c652e6c6f679050600080835160208501845afa505050565b600080fd5b6000819050919050565b61015f8161014c565b811461016a57600080fd5b50565b60008151905061017c81610156565b92915050565b60006020828403121561019857610197610147565b5b60006101a68482850161016d565b91505092915050565b600081519050919050565b600082825260208201905092915050565b60005b838110156101e95780820151818401526020810190506101ce565b60008484015250505050565b6000601f19601f8301169050919050565b6000610211826101af565b61021b81856101ba565b935061022b8185602086016101cb565b610234816101f5565b840191505092915050565b600060208201905081810360008301526102598184610206565b905092915050565b6105ec806102706000396000f3fe608060405234801561001057600080fd5b506004361061004c5760003560e01c806339966bdb146100515780633b5689031461006f578063539bf0b81461008d57806353ac33a914610097575b600080fd5b6100596100a1565b60405161006691906103b1565b60405180910390f35b6100776100a7565b60405161008491906103b1565b60405180910390f35b6100956100f2565b005b61009f61014c565b005b60005481565b60006100ea6040518060400160405280601881526020017f5765206861766520256420746f74616c20736d696c657321000000000000000081525060005461023f565b600054905090565b600160008082825461010491906103fb565b9250508190555061014a6040518060400160405280600e81526020017f25732068617320736d696c656421000000000000000000000000000000000000815250336102db565b565b600160008082825461015e919061042f565b925050819055506101a46040518060400160405280600e81526020017f25732068617320736d696c656421000000000000000000000000000000000000815250336102db565b565b61023c816040516024016101ba91906104f3565b6040516020818303038152906040527f41304fac000000000000000000000000000000000000000000000000000000007bffffffffffffffffffffffffffffffffffffffffffffffffffffffff19166020820180517bffffffffffffffffffffffffffffffffffffffffffffffffffffffff8381831617835250505050610377565b50565b6102d78282604051602401610255929190610515565b6040516020818303038152906040527fb60e72cc000000000000000000000000000000000000000000000000000000007bffffffffffffffffffffffffffffffffffffffffffffffffffffffff19166020820180517bffffffffffffffffffffffffffffffffffffffffffffffffffffffff8381831617835250505050610377565b5050565b61037382826040516024016102f1929190610586565b6040516020818303038152906040527f319af333000000000000000000000000000000000000000000000000000000007bffffffffffffffffffffffffffffffffffffffffffffffffffffffff19166020820180517bffffffffffffffffffffffffffffffffffffffffffffffffffffffff8381831617835250505050610377565b5050565b60006a636f6e736f6c652e6c6f679050600080835160208501845afa505050565b6000819050919050565b6103ab81610398565b82525050565b60006020820190506103c660008301846103a2565b92915050565b7f4e487b7100000000000000000000000000000000000000000000000000000000600052601160045260246000fd5b600061040682610398565b915061041183610398565b9250828203905081811115610429576104286103cc565b5b92915050565b600061043a82610398565b915061044583610398565b925082820190508082111561045d5761045c6103cc565b5b92915050565b600081519050919050565b600082825260208201905092915050565b60005b8381101561049d578082015181840152602081019050610482565b60008484015250505050565b6000601f19601f8301169050919050565b60006104c582610463565b6104cf818561046e565b93506104df81856020860161047f565b6104e8816104a9565b840191505092915050565b6000602082019050818103600083015261050d81846104ba565b905092915050565b6000604082019050818103600083015261052f81856104ba565b905061053e60208301846103a2565b9392505050565b600073ffffffffffffffffffffffffffffffffffffffff82169050919050565b600061057082610545565b9050919050565b61058081610565565b82525050565b600060408201905081810360008301526105a081856104ba565b90506105af6020830184610577565b939250505056fea2646970667358221220a8c048437840013d18992a4c6f309662cf9ac9378929caa4cbb9239032ec9e3c64736f6c63430008120033",
  "linkReferences": {},
  "deployedLinkReferences": {}
}